{
  "_format": "hh-sol-artifact-1",
  "contractName": "Staking",
  "sourceName": "contracts/Staking.sol",
  "abi": [
    {
      "inputs": [
        {
          "internalType": "address",
          "name": "tokenStaked",
          "type": "address"
        },
        {
          "internalType": "address",
          "name": "rewardToken",
          "type": "address"
        }
      ],
      "stateMutability": "nonpayable",
      "type": "constructor"
    },
    {
      "inputs": [],
      "name": "Staking__NeedsMoreThanZero",
      "type": "error"
    },
    {
      "inputs": [],
      "name": "Staking__TransferFailed",
      "type": "error"
    },
    {
      "inputs": [],
      "name": "REWARD_RATE",
      "outputs": [
        {
          "internalType": "uint256",
          "name": "",
          "type": "uint256"
        }
      ],
      "stateMutability": "view",
      "type": "function"
    },
    {
      "inputs": [
        {
          "internalType": "address",
          "name": "account",
          "type": "address"
        }
      ],
      "name": "earned",
      "outputs": [
        {
          "internalType": "uint256",
          "name": "",
          "type": "uint256"
        }
      ],
      "stateMutability": "view",
      "type": "function"
    },
    {
      "inputs": [],
      "name": "getReward",
      "outputs": [],
      "stateMutability": "nonpayable",
      "type": "function"
    },
    {
      "inputs": [],
      "name": "rewardPerToken",
      "outputs": [
        {
          "internalType": "uint256",
          "name": "",
          "type": "uint256"
        }
      ],
      "stateMutability": "view",
      "type": "function"
    },
    {
      "inputs": [
        {
          "internalType": "address",
          "name": "",
          "type": "address"
        }
      ],
      "name": "s_balances",
      "outputs": [
        {
          "internalType": "uint256",
          "name": "",
          "type": "uint256"
        }
      ],
      "stateMutability": "view",
      "type": "function"
    },
    {
      "inputs": [],
      "name": "s_lastUpdateTime",
      "outputs": [
        {
          "internalType": "uint256",
          "name": "",
          "type": "uint256"
        }
      ],
      "stateMutability": "view",
      "type": "function"
    },
    {
      "inputs": [],
      "name": "s_rewardToken",
      "outputs": [
        {
          "internalType": "contract IERC20",
          "name": "",
          "type": "address"
        }
      ],
      "stateMutability": "view",
      "type": "function"
    },
    {
      "inputs": [],
      "name": "s_rewardTokenStored",
      "outputs": [
        {
          "internalType": "uint256",
          "name": "",
          "type": "uint256"
        }
      ],
      "stateMutability": "view",
      "type": "function"
    },
    {
      "inputs": [
        {
          "internalType": "address",
          "name": "",
          "type": "address"
        }
      ],
      "name": "s_rewards",
      "outputs": [
        {
          "internalType": "uint256",
          "name": "",
          "type": "uint256"
        }
      ],
      "stateMutability": "view",
      "type": "function"
    },
    {
      "inputs": [],
      "name": "s_tokenStaked",
      "outputs": [
        {
          "internalType": "contract IERC20",
          "name": "",
          "type": "address"
        }
      ],
      "stateMutability": "view",
      "type": "function"
    },
    {
      "inputs": [],
      "name": "s_totalSupply",
      "outputs": [
        {
          "internalType": "uint256",
          "name": "",
          "type": "uint256"
        }
      ],
      "stateMutability": "view",
      "type": "function"
    },
    {
      "inputs": [
        {
          "internalType": "address",
          "name": "",
          "type": "address"
        }
      ],
      "name": "s_userPaidReward",
      "outputs": [
        {
          "internalType": "uint256",
          "name": "",
          "type": "uint256"
        }
      ],
      "stateMutability": "view",
      "type": "function"
    },
    {
      "inputs": [
        {
          "internalType": "uint256",
          "name": "amount",
          "type": "uint256"
        }
      ],
      "name": "stake",
      "outputs": [],
      "stateMutability": "nonpayable",
      "type": "function"
    },
    {
      "inputs": [
        {
          "internalType": "uint256",
          "name": "amount",
          "type": "uint256"
        }
      ],
      "name": "withdraw",
      "outputs": [],
      "stateMutability": "nonpayable",
      "type": "function"
    }
  ],
  "bytecode": "0x60806040523480156200001157600080fd5b506040516200112e3803806200112e8339818101604052810190620000379190620000d7565b816000806101000a81548173ffffffffffffffffffffffffffffffffffffffff021916908373ffffffffffffffffffffffffffffffffffffffff16021790555080600160006101000a81548173ffffffffffffffffffffffffffffffffffffffff021916908373ffffffffffffffffffffffffffffffffffffffff160217905550505062000171565b600081519050620000d18162000157565b92915050565b60008060408385031215620000f157620000f062000152565b5b60006200010185828601620000c0565b92505060206200011485828601620000c0565b9150509250929050565b60006200012b8262000132565b9050919050565b600073ffffffffffffffffffffffffffffffffffffffff82169050919050565b600080fd5b62000162816200011e565b81146200016e57600080fd5b50565b610fad80620001816000396000f3fe608060405234801561001057600080fd5b50600436106100e85760003560e01c80636a74a0fc1161008c578063a694fc3a11610066578063a694fc3a14610227578063ab32eb6914610243578063bea0815114610273578063cd3daf9d146102a3576100e8565b80636a74a0fc146101cd5780636aa0838f146101eb57806386dadb6814610209576100e8565b8063322d80f7116100c8578063322d80f7146101695780633d18b912146101875780635997bb37146101915780636374cc00146101af576100e8565b80627649c7146100ed5780628cc2621461011d5780632e1a7d4d1461014d575b600080fd5b61010760048036038101906101029190610bf2565b6102c1565b6040516101149190610d21565b60405180910390f35b61013760048036038101906101329190610bf2565b6102d9565b6040516101449190610d21565b60405180910390f35b61016760048036038101906101629190610c4c565b6103f8565b005b61017161066d565b60405161017e9190610d21565b60405180910390f35b61018f610673565b005b61019961084e565b6040516101a69190610d21565b60405180910390f35b6101b7610853565b6040516101c49190610d06565b60405180910390f35b6101d5610879565b6040516101e29190610d21565b60405180910390f35b6101f361087f565b6040516102009190610d21565b60405180910390f35b610211610885565b60405161021e9190610d06565b60405180910390f35b610241600480360381019061023c9190610c4c565b6108a9565b005b61025d60048036038101906102589190610bf2565b610b20565b60405161026a9190610d21565b60405180910390f35b61028d60048036038101906102889190610bf2565b610b38565b60405161029a9190610d21565b60405180910390f35b6102ab610b50565b6040516102b89190610d21565b60405180910390f35b60036020528060005260406000206000915090505481565b600080600260008473ffffffffffffffffffffffffffffffffffffffff1673ffffffffffffffffffffffffffffffffffffffff1681526020019081526020016000205490506000600360008573ffffffffffffffffffffffffffffffffffffffff1673ffffffffffffffffffffffffffffffffffffffff168152602001908152602001600020549050600061036c610b50565b90506000600460008773ffffffffffffffffffffffffffffffffffffffff1673ffffffffffffffffffffffffffffffffffffffff168152602001908152602001600020549050600081670de0b6b3a764000085856103ca9190610e1d565b876103d59190610dc3565b6103df9190610d92565b6103e99190610d3c565b90508095505050505050919050565b33610401610b50565b60068190555042600781905550610417816102d9565b600460008373ffffffffffffffffffffffffffffffffffffffff1673ffffffffffffffffffffffffffffffffffffffff16815260200190815260200160002081905550600654600360008373ffffffffffffffffffffffffffffffffffffffff1673ffffffffffffffffffffffffffffffffffffffff168152602001908152602001600020819055508160008114156104dc576040517f9b677fa000000000000000000000000000000000000000000000000000000000815260040160405180910390fd5b82600260003373ffffffffffffffffffffffffffffffffffffffff1673ffffffffffffffffffffffffffffffffffffffff168152602001908152602001600020546105279190610e1d565b600260003373ffffffffffffffffffffffffffffffffffffffff1673ffffffffffffffffffffffffffffffffffffffff16815260200190815260200160002081905550826005546105789190610e1d565b60058190555060008060009054906101000a900473ffffffffffffffffffffffffffffffffffffffff1673ffffffffffffffffffffffffffffffffffffffff1663a9059cbb33866040518363ffffffff1660e01b81526004016105dc929190610cdd565b602060405180830381600087803b1580156105f657600080fd5b505af115801561060a573d6000803e3d6000fd5b505050506040513d601f19601f8201168201806040525081019061062e9190610c1f565b905080610667576040517feb4c684700000000000000000000000000000000000000000000000000000000815260040160405180910390fd5b50505050565b60065481565b3361067c610b50565b60068190555042600781905550610692816102d9565b600460008373ffffffffffffffffffffffffffffffffffffffff1673ffffffffffffffffffffffffffffffffffffffff16815260200190815260200160002081905550600654600360008373ffffffffffffffffffffffffffffffffffffffff1673ffffffffffffffffffffffffffffffffffffffff168152602001908152602001600020819055506000600460003373ffffffffffffffffffffffffffffffffffffffff1673ffffffffffffffffffffffffffffffffffffffff1681526020019081526020016000205490506000600160009054906101000a900473ffffffffffffffffffffffffffffffffffffffff1673ffffffffffffffffffffffffffffffffffffffff1663a9059cbb33846040518363ffffffff1660e01b81526004016107be929190610cdd565b602060405180830381600087803b1580156107d857600080fd5b505af11580156107ec573d6000803e3d6000fd5b505050506040513d601f19601f820116820180604052508101906108109190610c1f565b905080610849576040517feb4c684700000000000000000000000000000000000000000000000000000000815260040160405180910390fd5b505050565b606481565b600160009054906101000a900473ffffffffffffffffffffffffffffffffffffffff1681565b60055481565b60075481565b60008054906101000a900473ffffffffffffffffffffffffffffffffffffffff1681565b336108b2610b50565b600681905550426007819055506108c8816102d9565b600460008373ffffffffffffffffffffffffffffffffffffffff1673ffffffffffffffffffffffffffffffffffffffff16815260200190815260200160002081905550600654600360008373ffffffffffffffffffffffffffffffffffffffff1673ffffffffffffffffffffffffffffffffffffffff1681526020019081526020016000208190555081600081141561098d576040517f9b677fa000000000000000000000000000000000000000000000000000000000815260040160405180910390fd5b82600260003373ffffffffffffffffffffffffffffffffffffffff1673ffffffffffffffffffffffffffffffffffffffff168152602001908152602001600020546109d89190610d3c565b600260003373ffffffffffffffffffffffffffffffffffffffff1673ffffffffffffffffffffffffffffffffffffffff1681526020019081526020016000208190555082600554610a299190610d3c565b60058190555060008060009054906101000a900473ffffffffffffffffffffffffffffffffffffffff1673ffffffffffffffffffffffffffffffffffffffff166323b872dd3330876040518463ffffffff1660e01b8152600401610a8f93929190610ca6565b602060405180830381600087803b158015610aa957600080fd5b505af1158015610abd573d6000803e3d6000fd5b505050506040513d601f19601f82011682018060405250810190610ae19190610c1f565b905080610b1a576040517feb4c684700000000000000000000000000000000000000000000000000000000815260040160405180910390fd5b50505050565b60026020528060005260406000206000915090505481565b60046020528060005260406000206000915090505481565b6000806005541415610b66576006549050610bb0565b600554670de0b6b3a7640000606460075442610b829190610e1d565b610b8c9190610dc3565b610b969190610dc3565b610ba09190610d92565b600654610bad9190610d3c565b90505b90565b600081359050610bc281610f32565b92915050565b600081519050610bd781610f49565b92915050565b600081359050610bec81610f60565b92915050565b600060208284031215610c0857610c07610f2d565b5b6000610c1684828501610bb3565b91505092915050565b600060208284031215610c3557610c34610f2d565b5b6000610c4384828501610bc8565b91505092915050565b600060208284031215610c6257610c61610f2d565b5b6000610c7084828501610bdd565b91505092915050565b610c8281610e51565b82525050565b610c9181610e99565b82525050565b610ca081610e8f565b82525050565b6000606082019050610cbb6000830186610c79565b610cc86020830185610c79565b610cd56040830184610c97565b949350505050565b6000604082019050610cf26000830185610c79565b610cff6020830184610c97565b9392505050565b6000602082019050610d1b6000830184610c88565b92915050565b6000602082019050610d366000830184610c97565b92915050565b6000610d4782610e8f565b9150610d5283610e8f565b9250827fffffffffffffffffffffffffffffffffffffffffffffffffffffffffffffffff03821115610d8757610d86610ecf565b5b828201905092915050565b6000610d9d82610e8f565b9150610da883610e8f565b925082610db857610db7610efe565b5b828204905092915050565b6000610dce82610e8f565b9150610dd983610e8f565b9250817fffffffffffffffffffffffffffffffffffffffffffffffffffffffffffffffff0483118215151615610e1257610e11610ecf565b5b828202905092915050565b6000610e2882610e8f565b9150610e3383610e8f565b925082821015610e4657610e45610ecf565b5b828203905092915050565b6000610e5c82610e6f565b9050919050565b60008115159050919050565b600073ffffffffffffffffffffffffffffffffffffffff82169050919050565b6000819050919050565b6000610ea482610eab565b9050919050565b6000610eb682610ebd565b9050919050565b6000610ec882610e6f565b9050919050565b7f4e487b7100000000000000000000000000000000000000000000000000000000600052601160045260246000fd5b7f4e487b7100000000000000000000000000000000000000000000000000000000600052601260045260246000fd5b600080fd5b610f3b81610e51565b8114610f4657600080fd5b50565b610f5281610e63565b8114610f5d57600080fd5b50565b610f6981610e8f565b8114610f7457600080fd5b5056fea2646970667358221220aadc6fc5a3b5c8b9fad904fe98745c0ac25c75c804fb8f9af78766e028c54e6064736f6c63430008070033",
  "linkReferences": {},
  "deployedLinkReferences": {}
}